{
  "contractName": "ContractReceiver",
  "abi": [
    {
      "constant": false,
      "inputs": [
        {
          "name": "_from",
          "type": "address"
        },
        {
          "name": "_value",
          "type": "uint256"
        },
        {
          "name": "_data",
          "type": "bytes"
        }
      ],
      "name": "tokenFallback",
      "outputs": [],
      "payable": false,
      "stateMutability": "nonpayable",
      "type": "function"
    },
    {
      "constant": false,
      "inputs": [],
      "name": "rewiewToken",
      "outputs": [
        {
          "name": "",
          "type": "address"
        },
        {
          "name": "",
          "type": "uint256"
        },
        {
          "name": "",
          "type": "bytes"
        },
        {
          "name": "",
          "type": "bytes4"
        }
      ],
      "payable": false,
      "stateMutability": "nonpayable",
      "type": "function"
    }
  ],
  "bytecode": "0x6060604052341561000f57600080fd5b6105bb8061001e6000396000f30060606040526004361061004c576000357c0100000000000000000000000000000000000000000000000000000000900463ffffffff168063c0ee0b8a14610051578063e1dace1a146100d6575b600080fd5b341561005c57600080fd5b6100d4600480803573ffffffffffffffffffffffffffffffffffffffff1690602001909190803590602001909190803590602001908201803590602001908080601f016020809104026020016040519081016040528093929190818152602001838380828437820191505050505050919050506101e3565b005b34156100e157600080fd5b6100e96104c8565b604051808573ffffffffffffffffffffffffffffffffffffffff1673ffffffffffffffffffffffffffffffffffffffff16815260200184815260200180602001837bffffffffffffffffffffffffffffffffffffffffffffffffffffffff19167bffffffffffffffffffffffffffffffffffffffffffffffffffffffff19168152602001828103825284818151815260200191508051906020019080838360005b838110156101a557808201518184015260208101905061018a565b50505050905090810190601f1680156101d25780820380516001836020036101000a031916815260200191505b509550505050505060405180910390f35b6101eb610503565b600084826000019073ffffffffffffffffffffffffffffffffffffffff16908173ffffffffffffffffffffffffffffffffffffffff168152505083826020018181525050828260400181905250601883600081518110151561024957fe5b9060200101517f010000000000000000000000000000000000000000000000000000000000000090047f0100000000000000000000000000000000000000000000000000000000000000027f0100000000000000000000000000000000000000000000000000000000000000900463ffffffff169060020a0260108460018151811015156102d357fe5b9060200101517f010000000000000000000000000000000000000000000000000000000000000090047f0100000000000000000000000000000000000000000000000000000000000000027f0100000000000000000000000000000000000000000000000000000000000000900463ffffffff169060020a02600885600281518110151561035d57fe5b9060200101517f010000000000000000000000000000000000000000000000000000000000000090047f0100000000000000000000000000000000000000000000000000000000000000027f0100000000000000000000000000000000000000000000000000000000000000900463ffffffff169060020a028560038151811015156103e557fe5b9060200101517f010000000000000000000000000000000000000000000000000000000000000090047f0100000000000000000000000000000000000000000000000000000000000000027f010000000000000000000000000000000000000000000000000000000000000090040101019050807c01000000000000000000000000000000000000000000000000000000000282606001907bffffffffffffffffffffffffffffffffffffffffffffffffffffffff191690817bffffffffffffffffffffffffffffffffffffffffffffffffffffffff1916815250505050505050565b6000806104d3610567565b60006104dd610503565b806000015181602001518260400151836060015181915094509450945094505090919293565b608060405190810160405280600073ffffffffffffffffffffffffffffffffffffffff1681526020016000815260200161053b61057b565b815260200160007bffffffffffffffffffffffffffffffffffffffffffffffffffffffff191681525090565b602060405190810160405280600081525090565b6020604051908101604052806000815250905600a165627a7a7230582005387cb2c737ac2f6aabcb63f206db66e73659c52d7c13940fb8a5d5db7ffa8d0029",
  "source": "pragma solidity ^0.4.15;\r\n\r\n /*\r\n * Contract that is working with ERC223 tokens\r\n */\r\n \r\n contract ContractReceiver {\r\n     \r\n    struct TKN {\r\n        address sender;\r\n        uint value;\r\n        bytes data;\r\n        bytes4 sig;\r\n    }\r\n    \r\n    \r\n    function tokenFallback(address _from, uint _value, bytes _data){\r\n      TKN memory tkn;\r\n      tkn.sender = _from;\r\n      tkn.value = _value;\r\n      tkn.data = _data;\r\n      uint32 u = uint32(_data[3]) + (uint32(_data[2]) << 8) + (uint32(_data[1]) << 16) + (uint32(_data[0]) << 24);\r\n      tkn.sig = bytes4(u);\r\n      \r\n      /* tkn variable is analogue of msg variable of Ether transaction\r\n      *  tkn.sender is person who initiated this token transaction   (analogue of msg.sender)\r\n      *  tkn.value the number of tokens that were sent   (analogue of msg.value)\r\n      *  tkn.data is data of token transaction   (analogue of msg.data)\r\n      *  tkn.sig is 4 bytes signature of function\r\n      *  if data of token transaction is a function execution\r\n      */\r\n    }\r\n\r\n    function rewiewToken  () returns (address, uint, bytes, bytes4) {\r\n        TKN memory tkn;\r\n\r\n        return (tkn.sender, tkn.value, tkn.data, tkn.sig);\r\n        \r\n    }\r\n}\r\n",
  "sourcePath": "D:\\Compiled contract\\ERC223\\contracts\\Receiver_Interface.sol",
  "compiler": {
    "name": "solc",
    "version": "0.4.18+commit.9cf6e910.Emscripten.clang"
  },
  "schemaVersion": "1.0.1",
  "updatedAt": "2018-01-04T12:09:57.710Z"
}